:100000000C94D7000C94FF000C94FF000C94FF009C
:100010000C94FF000C94FF000C94FF000C94FF0064
:100020000C94FF000C94FF000C94F8050C946106EE
:100030000C94FF000C94FF000C94FF000C94FF0044
:100040000C94FF000C94FF000C94FF000C94FF0034
:100050000C94FF000C94FF000C94FF000C94A30878
:100060000C94FF000C9413090C94ED080C94FF0001
:100070000C94FF000C94FF000C94FF000C94FF0004
:100080000C94FF000C94FF000C94FF000C94FF00F4
:100090000C94FF000C94FF000C94FF000C94FF00E4
:1000A0000C94FF000C94FF000C94FF000000000073
:1000B0002300260029002C002F000000000024004F
:1000C00027002A002D003000000000002500280035
:1000D0002B002E0031000404040404030405020272
:1000E00002020403020202020606060606060404D1
:1000F0000202020404040802011040804010204063
:10010000804080080204018040201002011080100D
:1001100020404020080B00020202000009040000F9
:100120000102020000052400100105240101010460
:10013000240206052406000107058103100040097A
:10014000040100020A000000070502024000000747
:100150000583024000000403090412010002EF02BB
:1001600001409A230E00000101020301416461660F
:1001700072756974004974737942697473792033B4
:100180003275342035562031364D487A0000000053
:100190000200090F0000030401000C000000000031
:1001A00000000000000000000000000045091124CC
:1001B0001FBECFEFDAE0DEBFCDBF11E0A0E0B1E0BF
:1001C000E0E2F9E102C005900D92A234B107D9F73F
:1001D00022E0A2E4B1E001C01D92AD3CB207E1F71C
:1001E00010E0C7EDD0E004C02197FE010E94830C0F
:1001F000C63DD107C9F70E94AA090C948E0C0C9435
:10020000000090916101911103C08FEF9FEF08955D
:100210004FB7F89492E09093E9009091F200292F63
:1002200030E01216130614F421E030E0232B29F0FD
:1002300084E6809360018091F100992339F0209148
:10024000F200211103C02BE62093E8004FBF992351
:10025000E1F290E008952FB7F89483E08093E900ED
:100260009091E800892F807295FF04C09091F20070
:1002700080E4891B2FBF08958091580181110DC022
:1002800082E08093540184E08093550110925701DD
:100290001092560181E08093580184E591E0089521
:1002A000CF93DF931F92CDB7DEB76983DC01ED9169
:1002B000FC910280F381E02D41E050E0BE016F5FD0
:1002C0007F4F09950F90DF91CF91089583E0809340
:1002D000E9008091F200882319F08AE38093E80016
:1002E00008950E942B0190E00895FC018485958576
:1002F00097FD05C02FEF3FEF3587248708950C94B5
:100300000101CF93DF93EC018C859D8597FF04C09D
:100310000E9401019D878C878C859D85DF91CF91FF
:100320000895FC018485958597FD0BC09FB7F894CF
:1003300082E08093E9008091F2009FBF90E00196F7
:1003400008959FB7F89482E08093E9008091F200CD
:100350009FBF90E0089540914E0150914F01209130
:100360004C0130914D0142175307B4F49091E800CD
:100370009570E1F39091E80092FD19C08093F1002F
:1003800080914E0190914F0101968F739927892B8F
:1003900019F48EEF8093E80080914E0190914F0107
:1003A000019690934F0180934E0181E0089580E083
:1003B0000895EF92FF920F931F93CF93DF93F82E40
:1003C000192FE62E042F81E0860F880F0E94AB01C3
:1003D00083E00E94AB01CF2DD12FEC0EFD2EF11C3E
:1003E000CE15DF05B9F007FF13C0FE0184910E940E
:1003F000AB01182F80E00E94AB018123219681116F
:10040000EFCFDF91CF911F910F91FF90EF90089563
:100410008881EDCF81E0F5CFDF92EF92FF920F93CD
:100420001F93CF93DF93D82E8A01EB017B01E40E5B
:10043000F51ECE15DF0559F0D7FE12C0FE018491DE
:100440000E94AB0121968111F4CF0FEF1FEFC8017D
:10045000DF91CF911F910F91FF90EF90DF90089562
:100460008881EECF0F931F93CF93DF931F92CDB769
:10047000DEB782E0898342E450E064E171E080E825
:100480000E940C020E943C01DC0112960D911C910D
:100490000115110589F0D801ED91FC910280F381DD
:1004A000E02DBE016F5F7F4FC801099597FD04C025
:1004B000F80100851185ECCF89810F90DF91CF91F4
:1004C0001F910F91089581508F3008F047C0E82F99
:1004D000F0E0E359FD4F0C94830C8A028E027C02FB
:1004E00082028602AE02AE02AE02910297029B0227
:1004F0009F02A502AE02A902809180008F778093AF
:1005000080000895809180008F7DF9CF80918000D8
:10051000877FF5CF84B58F7784BD089584B58F7DAF
:10052000FBCF809190008F77809390000895809109
:1005300090008F7DF9CF80919000877FF5CF8091DB
:10054000C0008F778093C00008958091C0008F7D98
:10055000F9CF8091C200877F8093C20008951F93D6
:10056000CF93DF93282F30E0F901E357FE4F8491BA
:10057000F901EB50FF4FD491F901EA52FF4FC491BA
:10058000CC23A9F0162F81110E946302EC2FF0E01A
:10059000EE0FFF1FE853FF4FA591B4918FB7F8946A
:1005A000EC91111108C0D095DE23DC938FBFDF9151
:1005B000CF911F910895DE2BF8CFCF93DF9390E07A
:1005C000FC01EB50FF4F24918A529F4FFC01849114
:1005D0008823C9F090E0880F991FFC01E654FF4F73
:1005E000A591B491FC01E853FF4FC591D4916111DD
:1005F0000DC09FB7F8948C91209582238C938881AD
:10060000282328839FBFDF91CF910895623051F452
:100610009FB7F8943C91822F809583238C93E88137
:100620002E2BEFCF8FB7F894EC912E2B2C938FBFFE
:10063000EACFCF93DF93EC0161E089E00E94DD0215
:10064000209731F460E089E0DF91CF910C94AF0204
:10065000CF3FD10511F461E0F6CFE6E9F1E0E49196
:10066000E150EF3008F07EC0F0E0E75CFC4F0C9406
:10067000830C48034F0354035E036803B203B203C1
:10068000B20372037C03860390039D03B203A503A8
:1006900084B5806884BDC7BDDF91CF91089584B5CE
:1006A000806284BDC8BDF8CF80918000806880934F
:1006B0008000D0938900C0938800EECF80918000A5
:1006C000806280938000D0938B00C0938A00E4CF37
:1006D00080918000886080938000D0938D00C093CB
:1006E0008C00DACF80919000806880939000D09346
:1006F0009900C0939800D0CF809190008062809341
:100700009000D0939B00C0939A00C6CF8091900038
:10071000886080939000D0939D00C0939C00BCCFD4
:100720008091C00080688093C0008091C0008F7B62
:100730008093C000C093CF00AFCF8091C000806293
:100740008093C000C093D000A7CF8091C200886082
:100750008093C2008091C2008B7F8093C200C093BF
:10076000D2009ACFC038D1050CF075CF6BCF3FB710
:10077000F8948091480190914901A0914A01B0916B
:100780004B0126B5A89B05C02F3F19F00196A11D6E
:10079000B11D3FBFBA2FA92F982F8827BC01CD01CB
:1007A000620F711D811D911D42E0660F771F881F2A
:1007B000991F4A95D1F70895CF92DF92EF92FF9259
:1007C0000E94B7036B017C010E94B7036C197D097D
:1007D0008E099F09683E734081059105A8F3FF903B
:1007E000EF90DF90CF9008958F929F92AF92BF923B
:1007F000CF92DF92EF92FF920F931F93CF93DF93ED
:100800006C017B018A0180910E01882309F457C095
:1008100080916101882309F452C08091530180FFC7
:1008200005C08091E00082608093E000E801B12C77
:100830008AEFA82E93E0892E2AE3922E209711F4B6
:10084000BB20B9F10E942B01811106C0AA94AA20F5
:10085000B1F10E94DC03F2CF8C171D0611F00CF0F1
:100860008C2F9FB7F8948092E9002091E80025FD35
:1008700002C09FBFE3CF282F30E0C21BD30BF7018C
:10088000815020F041914093F100FACFE20EF31E27
:10089000BB2021F09092E800B12CEBCF8091E800D2
:1008A00085FDE7CF9092E800BB24B394209709F32D
:1008B000F3CF84E680935201101611063CF081E0DC
:1008C00090E0F6019383828310E000E0C801DF919D
:1008D000CF911F910F91FF90EF90DF90CF90BF903D
:1008E000AF909F908F9008952FB7F8946091440136
:1008F0007091450180914601909147012FBF089565
:10090000862F642F0C94DD02AF92BF92CF92DF92BC
:10091000EF92FF920F931F93CF93DF936C017B01B4
:100920008B01040F151FEB015E01AE18BF08C01745
:10093000D10759F06991D601ED91FC910190F081B8
:10094000E02DC6010995892B79F7C501DF91CF917B
:100950001F910F91FF90EF90DF90CF90BF90AF90DD
:100960000895FC01538D448D252F30E0842F90E0B5
:10097000821B930B541710F0CF960895019708959A
:10098000FC01918D828D981761F0A28DAE0FBF2F63
:10099000B11D5D968C91928D9F5F9F73928F90E0B9
:1009A00008958FEF9FEF0895FC01918D828D981728
:1009B00031F0828DE80FF11D858D90E008958FEF65
:1009C0009FEF0895FC01918D228D892F90E0805C2E
:1009D0009F4F821B91098F739927089582EB91E0B5
:1009E0000E94E20421E0892B09F420E0822F08957F
:1009F00080E090E0892B29F00E94EE0481110C9494
:100A000000000895FC01A48DA80FB92FB11DA35AB1
:100A1000BF4F2C91848D90E001968F739927848F1E
:100A2000A689B7892C93A089B1898C9182748C9303
:100A3000938D848D981306C00288F389E02D808100
:100A40008F7D80830895EF92FF920F931F93CF9332
:100A5000DF93EC0181E0888F9B8D8C8D981319C0FA
:100A6000E889F989808185FF14C09FB7F894EE89E1
:100A7000FF896083E889F9898081827480839FBFC0
:100A800081E090E0DF91CF911F910F91FF90EF9067
:100A90000895F62E0B8D10E00F5F1F4F0F73112777
:100AA000E02E8C8D8E110CC00FB607FCFACFE889B2
:100AB000F989808185FFF5CFCE010E940205F1CF33
:100AC000EB8DEC0FFD2FF11DE35AFF4FF0829FB726
:100AD000F8940B8FEA89FB8980818062CFCFCF9316
:100AE000DF93EC01888D8823B9F0AA89BB89E88956
:100AF000F9898C9185FD03C0808186FD0DC00FB6FC
:100B000007FCF7CF8C9185FFF2CF808185FFEDCF79
:100B1000CE010E940205E9CFDF91CF910895CF93D6
:100B2000DF93EC014D815E816F817885452B462BEB
:100B3000472B59F00E94740469837A838B839C83CA
:100B400083E08883DF91CF9108951882FBCF0F93C4
:100B50001F93CF93DF93EC01888180FF17C00E9421
:100B6000740409811A812B813C81601B710B820BFB
:100B7000930B0D811E812F813885601771078207C5
:100B8000930758F09EEF888189238883888181703C
:100B9000DF91CF911F910F9108959FEFF4CFCF93E5
:100BA000DF93FC01218930E0F901E357FE4F849186
:100BB000F901EB50FF4FD491F901EA52FF4FC49174
:100BC000CC2379F081110E946302EC2FF0E0EE0F4C
:100BD000FF1FE455FF4FA591B491EC91ED2381E007
:100BE00009F480E08170DF91CF9108950E94890C13
:100BF0001F920F920FB60F9211248F939F938091A3
:100C0000E1009091E100937F9093E10083FF0FC09A
:100C10001092E90091E09093EB001092EC0092E3C7
:100C20009093ED001092610198E09093F00082FFA4
:100C30001CC093E09093E9009091F200992319F081
:100C40009AE39093E80090915201992329F09091B2
:100C5000520191509093520190916001992329F093
:100C60009091600191509093600184FF18C0809131
:100C7000E2008E7E81608093E2008091E1008F7EB1
:100C80008093E100809153018E7E806180935301B7
:100C90009F918F910F900FBE0F901F90189580FF1E
:100CA000F7CF8091E2008E7E80618093E200809198
:100CB000E1008E7E8093E100809153018E7E816001
:100CC000E5CF1F920F920FB60F921124CF92DF92B1
:100CD000EF92FF920F931F932F933F934F935F9346
:100CE0006F937F938F939F93AF93BF93EF93FF93F4
:100CF000CF93DF93CDB7DEB76C97DEBFCDBF109239
:100D0000E9008091E80083FF2FC089E0FE0175961D
:100D1000EE2EDF2E815029F09091F10090833196D4
:100D2000F9CF84E68093600182EF8093E8008D899B
:100D300087FF39C09091E80090FFFCCF982F907604
:100D400009F033C19E894F89588D2F89F88C9111F4
:100D500031C0803861F5809151018093F10010928B
:100D6000F1008EEF8093E8006C960FB6F894DEBF2A
:100D70000FBECDBFDF91CF91FF91EF91BF91AF91AA
:100D80009F918F917F916F915F914F913F912F91A3
:100D90001F910F91FF90EF90DF90CF900F900FBEBB
:100DA0000F901F9018959EEF9093E800C7CF109278
:100DB000F100D5CF913059F48111D3CF4130510595
:100DC00081F6809151018D7F80935101CACF93307C
:100DD00049F48111C6CF4130510519F68091510176
:100DE0008260F2CF953041F48091E80080FFFCCF23
:100DF00020682093E300B5CF963009F0A8C00B8D92
:100E00001C8D22E01092E90010924F0110924E01C9
:100E1000F2122EC010924D0110924C010E9432022B
:100E20001F8299E09983FA8291E09E8390EA9887E5
:100E30009AEF998720914E0130914F01275F3F4FE4
:100E40003C832B838D831092E90010924F01109206
:100E50004E0110934D0100934C0149E050E0BE015A
:100E60006F5F7F4F80E00E940C020E94320279CFB8
:100E700010934D0100934C010E943C01DC0112963D
:100E80000D911C910115110509F457C1D801ED917F
:100E9000FC910480F581E02D6E2D7D2DC801099512
:100EA000009709F045C1F80100851185EBCFF3E00B
:100EB000FF120EC08F89882309F440C0823061F48C
:100EC00040E867E185E791E00E94D901811149CFAF
:100ED00081E28093EB0048CF813029F440E868E05C
:100EE0008CE691E0F1CF833099F70E943C01DC0160
:100EF0001296ED90FC908E010F5F1F4F6801E11478
:100F0000F10479F0D701ED91FC910680F781E02D95
:100F1000B801C7010995080F111DF701E084F1849C
:100F2000EECFD8011C92F60101900020E9F731972D
:100F3000BF016C197D0940E0C601C6CF66E571E0CE
:100F4000FB01449150E080E80E940C020ACF9730E8
:100F500009F4BECF983021F481E08093F10001CFF5
:100F6000993009F0FECE837009F0B2CFE0E1F1E0F4
:100F700081E031E096E32191222371F08093E90032
:100F80003093EB00DF0111972C912093EC009093AC
:100F9000ED008F5F873079F78EE78093EA0010923B
:100FA000EA008F8980936101DCCE8B8D9C8D10923D
:100FB000E90010924F0110924E0190934D018093E1
:100FC0004C01898D81119AC08E899D89913A49F48D
:100FD000813209F07DCF47E050E067E071E080E0CA
:100FE000B3CF913209F074CF833269F48F89988D31
:100FF000B0E0A0E08093030190930401A093050169
:10100000B0930601AECE8032A9F48091E80082FF51
:10101000FCCF88E0E7E0F1E0815029F09091F10009
:1010200090833196F9CF84E6809360018BEF8093B3
:10103000E80097CE823209F094CE8F8980930E011A
:10104000EEEFFFE7859194918B3F9C4D51F1E0E0ED
:10105000F8E08091070190910801A0910901B091F9
:101060000A01803B9440A105B105F1F480910E0185
:1010700080FD1AC0EE3F8AE0F80789F587E797E719
:1010800091838083809160008093500188E19BE090
:101090000FB6F894A895809360000FBE90936000FF
:1010A00060CEEEEFFAE0D5CF808191818737974708
:1010B00009F057CEA8958091600088618093600008
:1010C0008091500180936000EE3F2AE0F20789F0A2
:1010D0008091FE0A9091FF0A9183808342CE8081A5
:1010E00091818737980751F29093FF0A8093FE0A07
:1010F000C5CF1092FF0A1092FE0A33CE0E943C0127
:10110000DC0112960D911C910115110509F4E0CE38
:10111000D801ED91FC910190F081E02D6E2D7D2D97
:10112000C801099581111DCEF80100851185ECCF0C
:10113000181619060CF415CECBCEF1E0FF12B7CE7F
:101140006AE571E0FDCE1F920F920FB60F92112447
:101150002F933F938F939F93AF93BF9380914401BD
:1011600090914501A0914601B09147013091430112
:1011700023E0230F2D3758F50196A11DB11D2093B3
:1011800043018093440190934501A0934601B0939D
:1011900047018091480190914901A0914A01B09185
:1011A0004B010196A11DB11D809348019093490107
:1011B000A0934A01B0934B01BF91AF919F918F9142
:1011C0003F912F910F900FBE0F901F90189526E81A
:1011D000230F0296A11DB11DD2CF1F920F920FB601
:1011E0000F9211242F933F934F935F936F937F93AD
:1011F0008F939F93AF93BF93EF93FF9382EB91E015
:101200000E940205FF91EF91BF91AF919F918F9145
:101210007F916F915F914F913F912F910F900FBEF2
:101220000F901F9018951F920F920FB60F921124D6
:101230002F938F939F93EF93FF93E091C201F091CF
:10124000C3018081E091C801F091C90182FD1BC0FA
:1012500090818091CB018F5F8F732091CC01821799
:1012600041F0E091CB01F0E0EE54FE4F958F80937A
:10127000CB01FF91EF919F918F912F910F900FBE16
:101280000F901F9018958081F4CFE2E6F1E0138271
:10129000128288EE93E0A0E0B0E084839583A68379
:1012A000B7832AE131E0318320832FEF3FEF358789
:1012B0002487E2EBF1E01382128284839583A68374
:1012C000B7838CE291E0918380838DEC90E09587E9
:1012D00084878CEC90E09787868788EC90E0918BF0
:1012E000808B89EC90E0938B828B8AEC90E0958BDD
:1012F000848B8EEC90E0978B868B118E128E138EE2
:10130000148EE4ECF2E010821182128213821482B5
:101310001582168217821086E8E5F2E012821382A7
:10132000148215828AE090E0978386831086118A62
:101330008EE391E09183808381E0828BEFE4F2E0A1
:1013400010821182128213821482158216821782F1
:1013500010860895CF93DF93CDB7DEB728970FB6E9
:10136000F894DEBF0FBECDBF789484B5826084BD93
:1013700084B5816084BD85B5826085BD85B5816099
:1013800085BD80916E00816080936E001092810017
:1013900080918100826080938100809181008160D2
:1013A0008093810080918000816080938000809193
:1013B0009100826080939100809191008160809380
:1013C0009100809190008160809390008091C10095
:1013D00084608093C1008091C10082608093C100CD
:1013E0008091C10081608093C1008091C3008160C1
:1013F0008093C3008091C00082608093C000809180
:10140000C20081608093C20080917A0084608093E2
:101410007A0080917A00826080937A0080917A00CD
:10142000816080937A0080917A00806880937A004E
:101430001092610110925101109253018091D700D6
:1014400081608093D70080EA8093D80089B580615D
:1014500089BD89B5826089BD09B400FEFDCF0E94B7
:10146000DC038091D8008F7C80618093D8008091CC
:10147000E000807F8093E0008091E1008E7E809389
:10148000E1008DE08093E20062E087E00E94DD02EF
:1014900087E0809369021092600288E592E00E94E2
:1014A000CF05882329F080916002836080936002D9
:1014B0000E94740460935A0270935B0280935C02F2
:1014C00090935D0285E090E090935F0280935E02CE
:1014D00010926A0261E082E00E94DD0261E089E030
:1014E0000E94DD0280E395E7A0E0B0E08093540223
:1014F00090935502A0935602B09357020E94740431
:101500006093500270935102809352029093530261
:1015100010924F0260E08DE00E94AF021092C20272
:101520001092C302E091C201F091C30182E0808376
:10153000E091C201F091C3011082E091BE01F091EF
:10154000BF011082E091C001F091C10180E1808370
:101550001092CA01E091C601F091C70186E0808334
:10156000E091C401F091C501808180618083E091A8
:10157000C401F091C501808188608083E091C4013D
:10158000F091C501808180688083E091C401F09171
:10159000C50180818F7D80831092BF021092C002AE
:1015A0001092C102EBE6F2E087E892E02FEF3FEF06
:1015B000219331938E179F07D9F782EB91E00E9418
:1015C000E204892B29F082EB91E00E94C004F5CF60
:1015D00030EFF32EF9820AEA0A8345E0E42EEB822B
:1015E000DD24D394DC8215E51D8345E050E0BE0187
:1015F0006F5F7F4F82EB91E00E948404F9820A833F
:10160000EB8282E08C831D8345E050E0BE016F5F7A
:101610007F4F82EB91E00E948404F9820A83EB827F
:1016200084E08C831D8345E050E0BE016F5F7F4FF7
:1016300082EB91E00E948404F9820A8386E08B8326
:101640008EE08C83DD821E8346E050E0BE016F5F3A
:101650007F4F82EB91E00E9484047724739452E0E0
:10166000652E60E0A62E60E0B62E11E000EF7AEA6B
:10167000D72EE8E0CE2E23E0922E95E5892E80919C
:1016800060028B7F8093600288E592E00E94CF0524
:10169000F82E8091600286958170F81609F49CC03E
:1016A0000E94740460935A0270935B0280935C0200
:1016B00090935D0280916002862580936002809104
:1016C0006002817090916A02981323C08091020198
:1016D0008823F9F061E082E00E94AF0261E08DE0D2
:1016E0000E94AF028FE492E00E948F0510920201E7
:1016F0000983DA82CB829C821D831E831F828886A7
:1017000048E050E0BE016F5F7F4F82EB91E00E94A6
:1017100084048FE492E00E94A7059091020188233F
:1017200009F4AFC091111FC084EC92E00E94A7059C
:10173000811119C0809100019091010118161906BC
:101740005CF4019790930101809300010E941903BA
:1017500084EC92E00E948F0580910001909101013C
:10176000892B09F4CDC08FE492E00E94A705811176
:1017700027C080914F02882319F110924F0260E038
:1017800082E00E94AF0260E08DE00E94AF02109301
:1017900002010983DA82CB829C821D8382E0282E9B
:1017A0002E821F82888648E050E0BE016F5F7F4F27
:1017B00082EB91E00E94840484EC92E00E948F0509
:1017C000A114B10409F45BCF0E94EE04882309F44C
:1017D00054CF0E9400004FCF0E94740420915A02FF
:1017E00030915B0240915C0250915D021B012C0123
:1017F000221A330A440A550AB201A10180915E02FD
:1018000090915F02B0E0A0E0481759076A077B0794
:1018100008F455CF809160028170F81609F44FCF1B
:101820000E94740460935A0270935B0280935C027E
:1018300090935D02809160028725846080936002AE
:101840000E9474042091610230916202409163020F
:1018500050916402621B730B840B950B60936502BD
:101860007093660280936702909368020E947404EA
:1018700060936102709362028093630290936402AA
:101880001ECF992309F450CF84EC92E00E94A70563
:10189000811169CF8091420181111DC0E09000014A
:1018A000F09001018FEFE81AF80AF0920101E0923E
:1018B0000001C7010E94190384EC92E00E948F0589
:1018C0008FEFE816F10411F4109342018091420168
:1018D000882309F448CFE0900001F090010181E0F5
:1018E000E81AF108F0920101E0920001C7010E949C
:1018F000190384EC92E00E948F05EF2809F033CFA2
:101900001092420130CFEE0FFF1F0590F491E02DB1
:10191000099481E090E0F8940C948E0CF894FFCF39
:10192000050001FFFFFFFF00E100000000000000D4
:10193000C18081000000000000005001F40371012B
:1019400066019101750181010000000023058404F6
:10195000B1046F05E204C004D40400000000CF0508
:02196000800401
:00000001FF
