:100000000C94D7000C94FF000C94FF000C94FF009C
:100010000C94FF000C94FF000C94FF000C94FF0064
:100020000C94FF000C94FF000C94FD050C946606E4
:100030000C94FF000C94FF000C94FF000C94FF0044
:100040000C94FF000C94FF000C94FF000C94FF0034
:100050000C94FF000C94FF000C94FF000C94A80873
:100060000C94FF000C9418090C94F2080C94FF00F7
:100070000C94FF000C94FF000C94FF000C94FF0004
:100080000C94FF000C94FF000C94FF000C94FF00F4
:100090000C94FF000C94FF000C94FF000C94FF00E4
:1000A0000C94FF000C94FF000C94FF000000000073
:1000B0002300260029002C002F000000000024004F
:1000C00027002A002D003000000000002500280035
:1000D0002B002E0031000404040404030405020272
:1000E00002020403020202020606060606060404D1
:1000F0000202020404040802011040804010204063
:10010000804080080204018040201002011080100D
:10011000204040200000000200090F0000030401FD
:10012000000C0000000000000000000000000000C3
:10013000000000080B000202020000090400000198
:10014000020200000524001001052401010104241D
:10015000020605240600010705810310004009047A
:100160000100020A00000007050202400000070526
:1001700083024000000403090412010002EF02019F
:10018000409A230E0000010102030141646166727E
:1001900075697400497473794269747379203332D4
:1001A00075342035562031364D487A004A091124DD
:1001B0001FBECFEFDAE0DEBFCDBF11E0A0E0B1E0BF
:1001C000E8EDF9E102C005900D92A034B107D9F72E
:1001D00022E0A0E4B1E001C01D92AB3DB207E1F71F
:1001E00010E0C7EDD0E004C02197FE010E94DF0CB3
:1001F000C63DD107C9F70E94C1090C94EA0C0C94C2
:10020000000090915E01911103C08FEF9FEF089560
:100210004FB7F89492E09093E9009091F200292F63
:1002200030E01216130614F421E030E0232B29F0FD
:1002300084E680935D018091F100992339F020914B
:10024000F200211103C02BE62093E8004FBF992351
:10025000E1F290E008952FB7F89483E08093E900ED
:100260009091E800892F807295FF04C09091F20070
:1002700080E4891B2FBF08958091550181110DC025
:1002800082E08093510184E08093520110925401E6
:100290001092530181E08093550181E591E008952A
:1002A000CF93DF931F92CDB7DEB76983DC01ED9169
:1002B000FC910280F381E02D41E050E0BE016F5FD0
:1002C0007F4F09950F90DF91CF91089583E0809340
:1002D000E9008091F200882319F08AE38093E80016
:1002E00008950E942B0190E00895FC018485958576
:1002F00097FD05C02FEF3FEF3587248708950C94B5
:100300000101CF93DF93EC018C859D8597FF04C09D
:100310000E9401019D878C878C859D85DF91CF91FF
:100320000895FC018485958597FD0BC09FB7F894CF
:1003300082E08093E9008091F2009FBF90E00196F7
:1003400008959FB7F89482E08093E9008091F200CD
:100350009FBF90E0089540914B0150914C01209136
:10036000490130914A0142175307B4F49091E800D3
:100370009570E1F39091E80092FD19C08093F1002F
:1003800080914B0190914C0101968F739927892B95
:1003900019F48EEF8093E80080914B0190914C010D
:1003A000019690934C0180934B0181E0089580E089
:1003B0000895EF92FF920F931F93CF93DF93F82E40
:1003C000192FE62E042F81E0860F880F0E94AB01C3
:1003D00083E00E94AB01CF2DD12FEC0EFD2EF11C3E
:1003E000CE15DF05B9F007FF13C0FE0184910E940E
:1003F000AB01182F80E00E94AB018123219681116F
:10040000EFCFDF91CF911F910F91FF90EF90089563
:100410008881EDCF81E0F5CFDF92EF92FF920F93CD
:100420001F93CF93DF93D82E8A01EB017B01E40E5B
:10043000F51ECE15DF0559F0D7FE12C0FE018491DE
:100440000E94AB0121968111F4CF0FEF1FEFC8017D
:10045000DF91CF911F910F91FF90EF90DF90089562
:100460008881EECF0F931F93CF93DF931F92CDB769
:10047000DEB782E0898342E450E063E371E080E824
:100480000E940C020E943C01DC0112960D911C910D
:100490000115110589F0D801ED91FC910280F381DD
:1004A000E02DBE016F5F7F4FC801099597FD04C025
:1004B000F80100851185ECCF89810F90DF91CF91F4
:1004C0001F910F91089581508F3008F047C0E82F99
:1004D000F0E0E359FD4F0C94DF0C8A028E027C029F
:1004E00082028602AE02AE02AE02910297029B0227
:1004F0009F02A502AE02A902809180008F778093AF
:1005000080000895809180008F7DF9CF80918000D8
:10051000877FF5CF84B58F7784BD089584B58F7DAF
:10052000FBCF809190008F77809390000895809109
:1005300090008F7DF9CF80919000877FF5CF8091DB
:10054000C0008F778093C00008958091C0008F7D98
:10055000F9CF8091C200877F8093C20008951F93D6
:10056000CF93DF93282F30E0F901EC5EFE4F8491AA
:10057000F901EB50FF4FD491F901EA52FF4FC491BA
:10058000CC23A9F0162F81110E946302EC2FF0E01A
:10059000EE0FFF1FE853FF4FA591B4918FB7F8946A
:1005A000EC91111108C0D095DE23DC938FBFDF9151
:1005B000CF911F910895DE2BF8CFCF93DF9390E07A
:1005C000FC01EB50FF4F24918A529F4FFC01849114
:1005D0008823C9F090E0880F991FFC01E654FF4F73
:1005E000A591B491FC01E853FF4FC591D4916111DD
:1005F0000DC09FB7F8948C91209582238C938881AD
:10060000282328839FBFDF91CF910895623051F452
:100610009FB7F8943C91822F809583238C93E88137
:100620002E2BEFCF8FB7F894EC912E2B2C938FBFFE
:10063000EACF1F93CF93DF93182FEB0161E00E9465
:10064000DD02209739F460E0812FDF91CF911F9177
:100650000C94AF02CF3FD10511F461E0F5CFE12F4B
:10066000F0E0EC5EFE4FE491E150EF3008F07FC027
:10067000F0E0E35CFC4F0C94DF0C4C035403590393
:1006800063036D03B703B703B703770381038B03DA
:100690009503A203B703AA0384B5806884BDC7BDD0
:1006A000DF91CF911F91089584B5806284BDC8BD4C
:1006B000F7CF80918000806880938000D09389007C
:1006C000C0938800EDCF809180008062809380008D
:1006D000D0938B00C0938A00E3CF80918000886024
:1006E00080938000D0938D00C0938C00D9CF8091EF
:1006F0009000806880939000D0939900C0939800F8
:10070000CFCF80919000806280939000D0939B0027
:10071000C0939A00C5CF809190008860809390002C
:10072000D0939D00C0939C00BBCF8091C000806897
:100730008093C0008091C0008F7B8093C000C093E5
:10074000CF00AECF8091C00080628093C000C09384
:10075000D000A6CF8091C20088608093C2008091B3
:10076000C2008B7F8093C200C093D20099CFC03863
:10077000D1050CF072CF67CF3FB7F8948091450157
:1007800090914601A0914701B091480126B5A89BE0
:1007900005C02F3F19F00196A11DB11D3FBFBA2F13
:1007A000A92F982F8827BC01CD01620F711D811DD3
:1007B000911D42E0660F771F881F991F4A95D1F758
:1007C0000895CF92DF92EF92FF920E94BC036B01DB
:1007D0007C010E94BC036C197D098E099F09683E4B
:1007E000734081059105A8F3FF90EF90DF90CF90C3
:1007F00008958F929F92AF92BF92CF92DF92EF9225
:10080000FF920F931F93CF93DF936C017B018A01BB
:1008100080910C01882309F457C080915E018823E0
:1008200009F452C08091500180FF05C08091E00022
:1008300082608093E000E801B12C8AEFA82E93E05B
:10084000892E2AE3922E209711F4BB20B9F10E9441
:100850002B01811106C0AA94AA20B1F10E94E103E4
:10086000F2CF8C171D0611F00CF08C2F9FB7F89467
:100870008092E9002091E80025FD02C09FBFE3CFF0
:10088000282F30E0C21BD30BF701815020F041919B
:100890004093F100FACFE20EF31EBB2021F09092BC
:1008A000E800B12CEBCF8091E80085FDE7CF909276
:1008B000E800BB24B394209709F3F3CF84E6809338
:1008C0004F01101611063CF081E090E0F601938391
:1008D000828310E000E0C801DF91CF911F910F915A
:1008E000FF90EF90DF90CF90BF90AF909F908F9050
:1008F00008952FB7F8946091410170914201809161
:100900004301909144012FBF0895862F642F0C94CA
:10091000DD02AF92BF92CF92DF92EF92FF920F93E0
:100920001F93CF93DF936C017B018B01040F151F85
:10093000EB015E01AE18BF08C017D10759F06991ED
:10094000D601ED91FC910190F081E02DC601099551
:10095000892B79F7C501DF91CF911F910F91FF90FE
:10096000EF90DF90CF90BF90AF900895FC01538D32
:10097000448D252F30E0842F90E0821B930B541779
:1009800010F0CF96089501970895FC01918D828D06
:10099000981761F0A28DAE0FBF2FB11D5D968C919F
:1009A000928D9F5F9F73928F90E008958FEF9FEFDE
:1009B0000895FC01918D828D981731F0828DE80F9A
:1009C000F11D858D90E008958FEF9FEF0895FC0154
:1009D000918D228D892F90E0805C9F4F821B910921
:1009E0008F73992708958FEA91E00E94E70421E030
:1009F000892B09F420E0822F089580E090E0892B74
:100A000029F00E94F30481110C9400000895FC0168
:100A1000A48DA80FB92FB11DA35ABF4F2C91848D5F
:100A200090E001968F739927848FA689B7892C93BC
:100A3000A089B1898C9182748C93938D848D981345
:100A400006C00288F389E02D80818F7D8083089520
:100A5000EF92FF920F931F93CF93DF93EC0181E00E
:100A6000888F9B8D8C8D981319C0E889F9898081B6
:100A700085FF14C09FB7F894EE89FF896083E889E9
:100A8000F9898081827480839FBF81E090E0DF914B
:100A9000CF911F910F91FF90EF900895F62E0B8D3F
:100AA00010E00F5F1F4F0F731127E02E8C8D8E11FA
:100AB0000CC00FB607FCFACFE889F989808185FF61
:100AC000F5CFCE010E940705F1CFEB8DEC0FFD2F86
:100AD000F11DE35AFF4FF0829FB7F8940B8FEA891C
:100AE000FB8980818062CFCFCF93DF93EC01888D2B
:100AF0008823B9F0AA89BB89E889F9898C9185FD99
:100B000003C0808186FD0DC00FB607FCF7CF8C9126
:100B100085FFF2CF808185FFEDCFCE010E940705D2
:100B2000E9CFDF91CF9108950F931F93CF93DF9378
:100B3000EC01888180FF17C00E94790409811A8125
:100B40002B813C81601B710B820B930B0D811E81ED
:100B50002F813885601771078207930758F09EEF41
:100B600088818923888388818170DF91CF911F914B
:100B70000F9108959FEFF4CFCF93DF93EC014D8356
:100B80005E836F837887452B462B472B59F00E9455
:100B9000790469837A838B839C8383E08883DF91E4
:100BA000CF9108951882FBCFCF93DF93FC01218969
:100BB00030E0F901EC5EFE4F8491F901EB50FF4FFC
:100BC000D491F901EA52FF4FC491CC2379F08111FD
:100BD0000E946302EC2FF0E0EE0FFF1FE455FF4F81
:100BE000A591B491EC91ED2381E009F480E081704E
:100BF000DF91CF9108950E94E50C1F920F920FB6DE
:100C00000F9211248F939F938091E1009091E100C6
:100C1000937F9093E10083FF0FC01092E90091E071
:100C20009093EB001092EC0092E39093ED00109201
:100C30005E0198E09093F00082FF1CC093E09093D7
:100C4000E9009091F200992319F09AE39093E8005B
:100C500090914F01992329F090914F0191509093D9
:100C60004F0190915D01992329F090915D01915080
:100C700090935D0184FF18C08091E2008E7E8160B8
:100C80008093E2008091E1008F7E8093E10080916B
:100C900050018E7E8061809350019F918F910F90C3
:100CA0000FBE0F901F90189580FFF7CF8091E20044
:100CB0008E7E80618093E2008091E1008E7E809341
:100CC000E100809150018E7E8160E5CF1F920F92EE
:100CD0000FB60F921124CF92DF92EF92FF920F93F3
:100CE0001F932F933F934F935F936F937F938F93B4
:100CF0009F93AF93BF93EF93FF93CF93DF93CDB7C2
:100D0000DEB76C97DEBFCDBF1092E9008091E8009E
:100D100083FF2FC089E0FE017596EE2EDF2E8150F5
:100D200029F09091F10090833196F9CF84E6809379
:100D30005D0182EF8093E8008D8987FF39C0909133
:100D4000E80090FFFCCF982F907609F033C19E8980
:100D50004F89588D2F89F88C911131C0803861F5F9
:100D600080914E018093F1001092F1008EEF8093FC
:100D7000E8006C960FB6F894DEBF0FBECDBFDF91D2
:100D8000CF91FF91EF91BF91AF919F918F917F9103
:100D90006F915F914F913F912F911F910F91FF9014
:100DA000EF90DF90CF900F900FBE0F901F9018958F
:100DB0009EEF9093E800C7CF1092F100D5CF91300D
:100DC00059F48111D3CF4130510581F680914E0104
:100DD0008D7F80934E01CACF933049F48111C6CFE5
:100DE0004130510519F680914E018260F2CF953065
:100DF00041F48091E80080FFFCCF20682093E3005D
:100E0000B5CF963009F0A8C00B8D1C8D22E0109252
:100E1000E90010924C0110924B01F2122EC0109278
:100E20004A01109249010E9432021F8299E099837F
:100E3000FA8291E09E8390EA98879AEF99872091B1
:100E40004B0130914C01275F3F4F3C832B838D83B7
:100E50001092E90010924C0110924B0110934A013C
:100E60000093490149E050E0BE016F5F7F4F80E091
:100E70000E940C020E94320279CF10934A01009323
:100E800049010E943C01DC0112960D911C91011553
:100E9000110509F457C1D801ED91FC910480F58149
:100EA000E02D6E2D7D2DC8010995009709F045C1F3
:100EB000F80100851185EBCFF3E0FF120EC08F899A
:100EC000882309F440C0823061F440E867E184E996
:100ED00091E00E94D901811149CF81E28093EB001A
:100EE00048CF813029F440E868E08BE891E0F1CF09
:100EF000833099F70E943C01DC011296ED90FC9042
:100F00008E010F5F1F4F6801E114F10479F0D701E2
:100F1000ED91FC910680F781E02DB801C70109959C
:100F2000080F111DF701E084F184EECFD8011C9267
:100F3000F60101900020E9F73197BF016C197D0996
:100F400040E0C601C6CF65E771E0FB01449150E087
:100F500080E80E940C020ACF973009F4BECF983087
:100F600021F481E08093F10001CF993009F0FECEA9
:100F7000837009F0B2CFEEE0F1E081E031E096E37A
:100F80002191222371F08093E9003093EB00DF017F
:100F900011972C912093EC009093ED008F5F873098
:100FA00079F78EE78093EA001092EA008F898093A8
:100FB0005E01DCCE8B8D9C8D1092E90010924C016D
:100FC00010924B0190934A0180934901898D8111C0
:100FD0009AC08E899D89913A49F4813209F07DCF7A
:100FE00047E050E065E071E080E0B3CF913209F076
:100FF00074CF833269F48F89988DB0E0A0E080933C
:10100000010190930201A0930301B0930401AECEBD
:101010008032A9F48091E80082FFFCCF88E0E5E00F
:10102000F1E0815029F09091F10090833196F9CF51
:1010300084E680935D018BEF8093E80097CE823247
:1010400009F094CE8F8980930C01EEEFFFE7859134
:1010500094918B3F9C4D51F1E0E0F8E080910501C7
:1010600090910601A0910701B0910801803B944046
:10107000A105B105F1F480910C0180FD1AC0EE3F8D
:101080008AE0F80789F587E797E791838083809165
:10109000600080934D0188E19BE00FB6F894A8951D
:1010A000809360000FBE9093600060CEEEEFFAE098
:1010B000D5CF808191818737974709F057CEA89582
:1010C0008091600088618093600080914D018093E1
:1010D0006000EE3F2AE0F20789F08091FE0A9091CD
:1010E000FF0A9183808342CE808191818737980760
:1010F00051F29093FF0A8093FE0AC5CF1092FF0A27
:101100001092FE0A33CE0E943C01DC0112960D9132
:101110001C910115110509F4E0CED801ED91FC9167
:101120000190F081E02D6E2D7D2DC8010995811172
:101130001DCEF80100851185ECCF181619060CF4A8
:1011400015CECBCEF1E0FF12B7CE69E771E0FDCE50
:101150001F920F920FB60F9211242F933F938F93EC
:101160009F93AF93BF938091410190914201A091D1
:101170004301B09144013091400123E0230F2D370A
:1011800058F50196A11DB11D2093400180934101A6
:1011900090934201A0934301B09344018091450193
:1011A00090914601A0914701B09148010196A11D7F
:1011B000B11D8093450190934601A0934701B093E0
:1011C0004801BF91AF919F918F913F912F910F90C7
:1011D0000FBE0F901F90189526E8230F0296A11DB1
:1011E000B11DD2CF1F920F920FB60F9211242F93E1
:1011F0003F934F935F936F937F938F939F93AF939F
:10120000BF93EF93FF938FEA91E00E940705FF9150
:10121000EF91BF91AF919F918F917F916F915F916E
:101220004F913F912F910F900FBE0F901F901895E7
:101230001F920F920FB60F9211242F938F939F93AB
:10124000EF93FF93E091BF01F091C0018081E091A5
:10125000C501F091C60182FD1BC090818091C8013B
:101260008F5F8F732091C901821741F0E091C8010F
:10127000F0E0E155FE4F958F8093C801FF91EF910B
:101280009F918F912F910F900FBE0F901F901895E7
:101290008081F4CFEFE5F1E01382128288EE93E0D3
:1012A000A0E0B0E084839583A683B78328E131E092
:1012B000318320832FEF3FEF35872487EFEAF1E07A
:1012C0001382128284839583A683B7838AE291E096
:1012D000918380838DEC90E0958784878CEC90E0FF
:1012E0009787868788EC90E0918B808B89EC90E0E3
:1012F000938B828B8AEC90E0958B848B8EEC90E0C4
:10130000978B868B118E128E138E148EE5E5F2E08C
:101310001082118212821382148215821682178221
:101320001086ECE4F2E010821182128213821482A1
:101330001582168217821086EFE6F2E0128213827F
:10134000148215828AE090E0978386831086118A42
:101350008CE391E09183808381E0828BE7E6F2E089
:1013600085E090E0968385831782EEE5F2E01082B7
:1013700011821282138214821582168217821086BD
:101380000895CF93DF93CDB7DEB72C970FB6F894BF
:10139000DEBF0FBECDBF789484B5826084BD84B5B6
:1013A000816084BD85B5826085BD85B5816085BD60
:1013B00080916E00816080936E0010928100809118
:1013C00081008260809381008091810081608093A0
:1013D00081008091800081608093800080919100E5
:1013E0008260809391008091910081608093910050
:1013F000809190008160809390008091C100846012
:101400008093C1008091C10082608093C10080916F
:10141000C10081608093C1008091C300816080938E
:10142000C3008091C00082608093C0008091C200A0
:1014300081608093C20080917A00846080937A00FA
:1014400080917A00826080937A0080917A00816036
:1014500080937A0080917A00806880937A0010925D
:101460005E0110924E01109250018091D700816070
:101470008093D70080EA8093D80089B5806189BDC8
:1014800089B5826089BD09B400FEFDCF0E94E103E9
:101490008091D8008F7C80618093D8008091E0009B
:1014A000807F8093E0008091E1008E7E8093E10058
:1014B0008DE08093E20062E087E00E94DD0287E039
:1014C00080938002109277028FE692E00E94D4050A
:1014D000882329F0809177028360809377020E94AD
:1014E00079046093710270937202809373029093F7
:1014F000740285E090E090937602809375021092DA
:10150000810289E090E0909368028093670261E035
:1015100082E00E94DD0261E089E00E94DD0240E39A
:1015200055E760E070E08EE592E00E94BC05109205
:101530005E0260E08DE00E94AF021092D90210922C
:10154000DA02E091BF01F091C00182E08083E09176
:10155000BF01F091C0011082E091BB01F091BC018C
:101560001082E091BD01F091BE0180E18083109274
:10157000C701E091C301F091C40186E08083E0914E
:10158000C101F091C201808180618083E091C1013D
:10159000F091C201808188608083E091C101F09167
:1015A000C201808180688083E091C101F091C20115
:1015B00080818F7D80831092D6021092D702109284
:1015C000D802E2E8F2E08EE992E02FEF3FEF2193BC
:1015D00031938E179F07D9F78FEA91E00E94E704B5
:1015E000892B29F08FEA91E00E94C504F5CF40EFE6
:1015F000F42EF9820AEA0A8355E0E52EEB82DD2417
:10160000D394DC8215E51D8345E050E0BE016F5F99
:101610007F4F8FEA91E00E948904F9820A83EB826E
:1016200082E08C831D8345E050E0BE016F5F7F4FF9
:101630008FEA91E00E948904F9820A83EB8284E0B8
:101640008C831D8345E050E0BE016F5F7F4F8FEAC2
:1016500091E00E948904F9820A8386E08B838EE000
:101660008C83DD821E8346E050E0BE016F5F7F4FBA
:101670008FEA91E00E9489045524539462E0462E3B
:1016800011E072E0372E00EFEEE18E2E912C3AEA57
:10169000F32E88E0E82E93E0792E25E5622E8091E6
:1016A00077028B7F809377028FE692E00E94D405C9
:1016B000282E8091770286958170281609F4E7C05C
:1016C0000E94790460937102709372028093730296
:1016D00090937402809177028425809377028091A1
:1016E000770281709091810298132BC08091000144
:1016F000882339F161E082E00E94AF0261E08DE071
:101700000E94AF02409163025091640260916502B1
:10171000709166028EE592E00E94BC051092000175
:101720000983FA82EB827C821D831E831F82688676
:1017300048E050E0BE016F5F7F4F8FEA91E00E946A
:1017400089048EE592E00E94940590910001811138
:10175000F1C0992309F4F0C090926B0280926A0262
:1017600085E592E00E949405811159C080916E0236
:10177000811133C060916C0270916D026F5F7F4F79
:1017800070936D0260936C02809167020E9419034E
:1017900040916A0250916B02052E000C660B770B8C
:1017A00085E592E00E94BC0540915A0250915B028F
:1017B00060915C0270915D0285E592E00E94BC053B
:1017C00080916C0290916D028F3F910511F41093FE
:1017D0006E0280916E02882311F160916C0270910B
:1017E0006D026150710970936D0260936C0280917B
:1017F00067020E94190340916A0250916B02052E04
:10180000000C660B770B85E592E00E94BC05809189
:101810006C0290916D02892B11F410926E028CE48F
:1018200092E00E9494058EE592E00E949405811159
:1018300021C080915E028823E9F010925E0260E090
:1018400082E00E94AF0260E08DE00E94AF02109340
:1018500000010983FA82EB827C821D833E821F8213
:10186000688648E050E0BE016F5F7F4F8FEA91E0ED
:101870000E94890480E090E0892B09F410CF0E9437
:10188000F304882309F405CF0E94000000CF0E94D2
:101890007904A0907102B0907202C0907302D0904F
:1018A00074029B01AC012A193B094C095D09809126
:1018B000750290917602B0E0A0E0281739074A0738
:1018C0005B0708F40CCF809177028170281609F429
:1018D00006CF0E9479046093710270937202809324
:1018E00073029093740280917702852584608093BF
:1018F00077020E9479042091780230917902409118
:101900007A0250917B02621B730B840B950B6093E0
:101910007C0270937D0280937E0290937F020E94EE
:101920007904609378027093790280937A0290939D
:101930007B02D5CE911177CF4FE050E050936B02F0
:1019400040936A0285E592E00E9494058CE492E05F
:101950000E949405811167CF60916C0270916D02B5
:101960001616170614F56150710970936D02609395
:101970006C02809167020E94190340916A025091A3
:101980006B02052E000C660B770B8CE492E00E9434
:10199000BC054091510250915202609153027091E6
:1019A00054028CE492E00E94BC0580916C029091FC
:1019B0006D02892B09F037CF10926E0234CFEE0FF3
:1019C000FF1F0590F491E02D099481E090E0F894D8
:0819D0000C94EA0CF894FFCF1F
:1019D80001FFFFFFFF00E100000000000000C180E0
:1019E80081000000000000005001F9037101660148
:1019F8009101750181010000000028058904B604E1
:101A08007405E704C504D90400000000D405850462
:00000001FF
